{
  "_format": "hh-sol-artifact-1",
  "contractName": "TokenStorage",
  "sourceName": "contracts/TokenStorage.sol",
  "abi": [
    {
      "inputs": [
        {
          "internalType": "string",
          "name": "name",
          "type": "string"
        },
        {
          "internalType": "uint256",
          "name": "token",
          "type": "uint256"
        }
      ],
      "name": "addToken",
      "outputs": [],
      "stateMutability": "nonpayable",
      "type": "function"
    },
    {
      "inputs": [
        {
          "internalType": "string",
          "name": "name",
          "type": "string"
        }
      ],
      "name": "getToken",
      "outputs": [
        {
          "internalType": "uint256",
          "name": "",
          "type": "uint256"
        }
      ],
      "stateMutability": "view",
      "type": "function"
    }
  ],
  "bytecode": "0x608060405234801561001057600080fd5b50610398806100206000396000f3fe608060405234801561001057600080fd5b50600436106100365760003560e01c80638ca132f71461003b578063c1733f6814610057575b600080fd5b61005560048036038101906100509190610193565b610087565b005b610071600480360381019061006c9190610152565b6100ae565b60405161007e919061023e565b60405180910390f35b806000836040516100989190610227565b9081526020016040518091039020819055505050565b600080826040516100bf9190610227565b9081526020016040518091039020549050919050565b60006100e86100e38461028a565b610259565b90508281526020810184848401111561010057600080fd5b61010b8482856102da565b509392505050565b600082601f83011261012457600080fd5b81356101348482602086016100d5565b91505092915050565b60008135905061014c8161034b565b92915050565b60006020828403121561016457600080fd5b600082013567ffffffffffffffff81111561017e57600080fd5b61018a84828501610113565b91505092915050565b600080604083850312156101a657600080fd5b600083013567ffffffffffffffff8111156101c057600080fd5b6101cc85828601610113565b92505060206101dd8582860161013d565b9150509250929050565b60006101f2826102ba565b6101fc81856102c5565b935061020c8185602086016102e9565b80840191505092915050565b610221816102d0565b82525050565b600061023382846101e7565b915081905092915050565b60006020820190506102536000830184610218565b92915050565b6000604051905081810181811067ffffffffffffffff821117156102805761027f61031c565b5b8060405250919050565b600067ffffffffffffffff8211156102a5576102a461031c565b5b601f19601f8301169050602081019050919050565b600081519050919050565b600081905092915050565b6000819050919050565b82818337600083830152505050565b60005b838110156103075780820151818401526020810190506102ec565b83811115610316576000848401525b50505050565b7f4e487b7100000000000000000000000000000000000000000000000000000000600052604160045260246000fd5b610354816102d0565b811461035f57600080fd5b5056fea2646970667358221220ec1b8e7c8699534ae0a9ccb042685477d6c170c045ad9b6ece0414134f2d8e1664736f6c63430008000033",
  "linkReferences": {},
  "deployedLinkReferences": {}
}